{
  "contractName": "ArrayStorage",
  "abi": [
    {
      "constant": true,
      "inputs": [
        {
          "internalType": "uint256",
          "name": "",
          "type": "uint256"
        }
      ],
      "name": "id",
      "outputs": [
        {
          "internalType": "uint256",
          "name": "",
          "type": "uint256"
        }
      ],
      "payable": false,
      "stateMutability": "view",
      "type": "function"
    },
    {
      "constant": false,
      "inputs": [
        {
          "internalType": "uint256",
          "name": "_id",
          "type": "uint256"
        }
      ],
      "name": "add",
      "outputs": [
        {
          "internalType": "uint256",
          "name": "",
          "type": "uint256"
        }
      ],
      "payable": false,
      "stateMutability": "nonpayable",
      "type": "function"
    },
    {
      "constant": true,
      "inputs": [
        {
          "internalType": "uint256",
          "name": "i",
          "type": "uint256"
        }
      ],
      "name": "get",
      "outputs": [
        {
          "internalType": "uint256",
          "name": "",
          "type": "uint256"
        }
      ],
      "payable": false,
      "stateMutability": "view",
      "type": "function"
    },
    {
      "constant": true,
      "inputs": [],
      "name": "getall",
      "outputs": [
        {
          "internalType": "uint256[]",
          "name": "",
          "type": "uint256[]"
        }
      ],
      "payable": false,
      "stateMutability": "view",
      "type": "function"
    },
    {
      "constant": true,
      "inputs": [],
      "name": "returnlength",
      "outputs": [
        {
          "internalType": "uint256",
          "name": "",
          "type": "uint256"
        }
      ],
      "payable": false,
      "stateMutability": "view",
      "type": "function"
    }
  ],
  "bytecode": "0x608060405234801561001057600080fd5b506102ac806100206000396000f3fe608060405234801561001057600080fd5b50600436106100575760003560e01c80631003e2d21461005c5780637d3c40c81461009e57806390974795146100e05780639507d39a1461013f578063f07f151d14610181575b600080fd5b6100886004803603602081101561007257600080fd5b810190808035906020019092919050505061019f565b6040518082815260200191505060405180910390f35b6100ca600480360360208110156100b457600080fd5b81019080803590602001909291905050506101d2565b6040518082815260200191505060405180910390f35b6100e86101f3565b6040518080602001828103825283818151815260200191508051906020019060200280838360005b8381101561012b578082015181840152602081019050610110565b505050509050019250505060405180910390f35b61016b6004803603602081101561015557600080fd5b810190808035906020019092919050505061024b565b6040518082815260200191505060405180910390f35b61018961026b565b6040518082815260200191505060405180910390f35b60008082908060018154018082558091505090600182039060005260206000200160009091929091909150559050919050565b600081815481106101df57fe5b906000526020600020016000915090505481565b6060600080548060200260200160405190810160405280929190818152602001828054801561024157602002820191906000526020600020905b81548152602001906001019080831161022d575b5050505050905090565b600080828154811061025957fe5b90600052602060002001549050919050565b6000808054905090509056fea265627a7a72315820eeb793088721bfd9276c112c88a4b6027b7fdad669da2e16dedd2ff6b680cfbd64736f6c634300050c0032",
  "source": "pragma solidity ^0.5.12;\r\n\r\ncontract ArrayStorage{\r\n\r\nuint[] public id;\r\nfunction add(uint _id) public  returns(uint){\r\nreturn id.push(_id);\r\n\r\n}\r\n\r\nfunction get(uint i) public view returns(uint) {\r\n    return id[i];\r\n}\r\n\r\nfunction getall() public view returns(uint[] memory){\r\n    return id;\r\n}\r\n\r\nfunction returnlength() public view returns(uint){\r\nreturn id.length;\r\n}\r\n}",
  "sourcePath": "D:/Assignments/assignment1_sol_BCC003125/contracts/ArrayStorage.sol",
  "compiler": {
    "name": "solc",
    "version": "0.5.12+commit.7709ece9.Emscripten.clang"
  },
  "schemaVersion": "3.0.19",
  "updatedAt": "2020-01-28T22:43:15.769Z",
  "devdoc": {
    "methods": {}
  },
  "userdoc": {
    "methods": {}
  }
}