{
  "contractName": "Crud",
  "abi": [
    {
      "constant": true,
      "inputs": [],
      "name": "_id",
      "outputs": [
        {
          "internalType": "uint256",
          "name": "",
          "type": "uint256"
        }
      ],
      "payable": false,
      "stateMutability": "view",
      "type": "function"
    },
    {
      "constant": true,
      "inputs": [
        {
          "internalType": "uint256",
          "name": "",
          "type": "uint256"
        }
      ],
      "name": "users",
      "outputs": [
        {
          "internalType": "uint256",
          "name": "id",
          "type": "uint256"
        },
        {
          "internalType": "string",
          "name": "name",
          "type": "string"
        }
      ],
      "payable": false,
      "stateMutability": "view",
      "type": "function"
    },
    {
      "constant": false,
      "inputs": [
        {
          "internalType": "string",
          "name": "_name",
          "type": "string"
        }
      ],
      "name": "create",
      "outputs": [],
      "payable": false,
      "stateMutability": "nonpayable",
      "type": "function"
    },
    {
      "constant": true,
      "inputs": [
        {
          "internalType": "uint256",
          "name": "id",
          "type": "uint256"
        }
      ],
      "name": "read",
      "outputs": [
        {
          "internalType": "uint256",
          "name": "",
          "type": "uint256"
        },
        {
          "internalType": "string",
          "name": "",
          "type": "string"
        }
      ],
      "payable": false,
      "stateMutability": "view",
      "type": "function"
    }
  ],
  "bytecode": "0x60806040526001805534801561001457600080fd5b506105e6806100246000396000f3fe608060405234801561001057600080fd5b506004361061004c5760003560e01c80630518023714610051578063365b98b21461006f578063b6a46b3b1461011d578063ed2e5a97146101d8575b600080fd5b610059610286565b6040518082815260200191505060405180910390f35b61009b6004803603602081101561008557600080fd5b810190808035906020019092919050505061028c565b6040518083815260200180602001828103825283818151815260200191508051906020019080838360005b838110156100e15780820151818401526020810190506100c6565b50505050905090810190601f16801561010e5780820380516001836020036101000a031916815260200191505b50935050505060405180910390f35b6101d66004803603602081101561013357600080fd5b810190808035906020019064010000000081111561015057600080fd5b82018360208201111561016257600080fd5b8035906020019184600183028401116401000000008311171561018457600080fd5b91908080601f016020809104026020016040519081016040528093929190818152602001838380828437600081840152601f19601f820116905080830192505050505050509192919290505050610355565b005b610204600480360360208110156101ee57600080fd5b81019080803590602001909291905050506103d8565b6040518083815260200180602001828103825283818151815260200191508051906020019080838360005b8381101561024a57808201518184015260208101905061022f565b50505050905090810190601f1680156102775780820380516001836020036101000a031916815260200191505b50935050505060405180910390f35b60015481565b6000818154811061029957fe5b9060005260206000209060020201600091509050806000015490806001018054600181600116156101000203166002900480601f01602080910402602001604051908101604052809291908181526020018280546001816001161561010002031660029004801561034b5780601f106103205761010080835404028352916020019161034b565b820191906000526020600020905b81548152906001019060200180831161032e57829003601f168201915b5050505050905082565b60006040518060400160405280600154815260200183815250908060018154018082558091505090600182039060005260206000209060020201600090919290919091506000820151816000015560208201518160010190805190602001906103bf92919061050c565b5050505060016000815480929190600101919050555050565b6000606060008090505b6000805490508110156105055783600082815481106103fd57fe5b90600052602060002090600202016000015414156104f8576000818154811061042257fe5b9060005260206000209060020201600001546000828154811061044157fe5b9060005260206000209060020201600101808054600181600116156101000203166002900480601f0160208091040260200160405190810160405280929190818152602001828054600181600116156101000203166002900480156104e75780601f106104bc576101008083540402835291602001916104e7565b820191906000526020600020905b8154815290600101906020018083116104ca57829003601f168201915b505050505090509250925050610507565b80806001019150506103e2565b505b915091565b828054600181600116156101000203166002900490600052602060002090601f016020900481019282601f1061054d57805160ff191683800117855561057b565b8280016001018555821561057b579182015b8281111561057a57825182559160200191906001019061055f565b5b509050610588919061058c565b5090565b6105ae91905b808211156105aa576000816000905550600101610592565b5090565b9056fea265627a7a72315820f11003abc916f5a30384eded7b89b6dcba6e1f9fae0d0221efba2f293b6b8d3e64736f6c634300050c0032",
  "source": "pragma solidity ^0.5.12;\r\n\r\n\r\ncontract Crud{\r\nstruct user{\r\n    uint id;\r\n    string name;\r\n}\r\n\r\nuser[] public users;\r\n\r\nuint public _id = 1;\r\n\r\nfunction create(string memory _name) public {\r\nusers.push(user(_id,_name));\r\n_id ++;\r\n}\r\n\r\nfunction read(uint id) public view returns(uint, string memory) {\r\n     for(uint i = 0; i < users.length; i++) {\r\n      if(users[i].id == id) {\r\n    return(users[i].id,users[i].name);\r\n      }\r\n    }\r\n}\r\n}",
  "sourcePath": "D:/Assignments/assignment1_sol_BCC003125/contracts/Crud.sol",
  "compiler": {
    "name": "solc",
    "version": "0.5.12+commit.7709ece9.Emscripten.clang"
  },
  "schemaVersion": "3.0.19",
  "updatedAt": "2020-01-29T19:14:50.411Z",
  "devdoc": {
    "methods": {}
  },
  "userdoc": {
    "methods": {}
  }
}