{
  "contractName": "Enrollment",
  "abi": [
    {
      "constant": true,
      "inputs": [],
      "name": "numOfstd",
      "outputs": [
        {
          "internalType": "uint256",
          "name": "",
          "type": "uint256"
        }
      ],
      "payable": false,
      "stateMutability": "view",
      "type": "function"
    },
    {
      "constant": true,
      "inputs": [
        {
          "internalType": "uint256",
          "name": "",
          "type": "uint256"
        }
      ],
      "name": "students",
      "outputs": [
        {
          "internalType": "uint256",
          "name": "rollNo",
          "type": "uint256"
        },
        {
          "internalType": "string",
          "name": "name",
          "type": "string"
        },
        {
          "internalType": "bool",
          "name": "degree",
          "type": "bool"
        },
        {
          "internalType": "enum Enrollment.regType",
          "name": "registype",
          "type": "uint8"
        }
      ],
      "payable": false,
      "stateMutability": "view",
      "type": "function"
    },
    {
      "constant": true,
      "inputs": [],
      "name": "getBalance",
      "outputs": [
        {
          "internalType": "uint256",
          "name": "",
          "type": "uint256"
        }
      ],
      "payable": false,
      "stateMutability": "view",
      "type": "function"
    },
    {
      "constant": false,
      "inputs": [
        {
          "internalType": "uint256",
          "name": "_rollNo",
          "type": "uint256"
        },
        {
          "internalType": "string",
          "name": "_name",
          "type": "string"
        },
        {
          "internalType": "bool",
          "name": "_degree",
          "type": "bool"
        },
        {
          "internalType": "enum Enrollment.regType",
          "name": "_registype",
          "type": "uint8"
        }
      ],
      "name": "paytoenroll",
      "outputs": [],
      "payable": true,
      "stateMutability": "payable",
      "type": "function"
    },
    {
      "constant": true,
      "inputs": [],
      "name": "getAddress",
      "outputs": [
        {
          "internalType": "address",
          "name": "",
          "type": "address"
        }
      ],
      "payable": false,
      "stateMutability": "view",
      "type": "function"
    }
  ],
  "bytecode": "0x608060405260008055733a38e94f0662c2407194074f9f7d69a3cdcec479600160006101000a81548173ffffffffffffffffffffffffffffffffffffffff021916908373ffffffffffffffffffffffffffffffffffffffff16021790555034801561006957600080fd5b50610621806100796000396000f3fe60806040526004361061004a5760003560e01c8063057076811461004f57806306ead22e1461007a57806312065fe01461015557806338cc483114610180578063518e5190146101d7575b600080fd5b34801561005b57600080fd5b506100646102b5565b6040518082815260200191505060405180910390f35b34801561008657600080fd5b506100b36004803603602081101561009d57600080fd5b81019080803590602001909291905050506102bb565b6040518085815260200180602001841515151581526020018360018111156100d757fe5b60ff168152602001828103825285818151815260200191508051906020019080838360005b838110156101175780820151818401526020810190506100fc565b50505050905090810190601f1680156101445780820380516001836020036101000a031916815260200191505b509550505050505060405180910390f35b34801561016157600080fd5b5061016a61039d565b6040518082815260200191505060405180910390f35b34801561018c57600080fd5b506101956103de565b604051808273ffffffffffffffffffffffffffffffffffffffff1673ffffffffffffffffffffffffffffffffffffffff16815260200191505060405180910390f35b6102b3600480360360808110156101ed57600080fd5b81019080803590602001909291908035906020019064010000000081111561021457600080fd5b82018360208201111561022657600080fd5b8035906020019184600183028401116401000000008311171561024857600080fd5b91908080601f016020809104026020016040519081016040528093929190818152602001838380828437600081840152601f19601f820116905080830192505050505050509192919290803515159060200190929190803560ff169060200190929190505050610408565b005b60005481565b6002602052806000526040600020600091509050806000015490806001018054600181600116156101000203166002900480601f01602080910402602001604051908101604052809291908181526020018280546001816001161561010002031660029004801561036d5780601f106103425761010080835404028352916020019161036d565b820191906000526020600020905b81548152906001019060200180831161035057829003601f168201915b5050505050908060020160009054906101000a900460ff16908060020160019054906101000a900460ff16905084565b6000600160009054906101000a900473ffffffffffffffffffffffffffffffffffffffff1673ffffffffffffffffffffffffffffffffffffffff1631905090565b6000600160009054906101000a900473ffffffffffffffffffffffffffffffffffffffff16905090565b671bc16d674ec800003410610541576040518060800160405280858152602001848152602001831515815260200182600181111561044257fe5b8152506002600086815260200190815260200160002060008201518160000155602082015181600101908051906020019061047e929190610547565b5060408201518160020160006101000a81548160ff02191690831515021790555060608201518160020160016101000a81548160ff021916908360018111156104c357fe5b0217905550905050600160005401600081905550600160009054906101000a900473ffffffffffffffffffffffffffffffffffffffff1673ffffffffffffffffffffffffffffffffffffffff166108fc349081150290604051600060405180830381858888f1935050505015801561053f573d6000803e3d6000fd5b505b50505050565b828054600181600116156101000203166002900490600052602060002090601f016020900481019282601f1061058857805160ff19168380011785556105b6565b828001600101855582156105b6579182015b828111156105b557825182559160200191906001019061059a565b5b5090506105c391906105c7565b5090565b6105e991905b808211156105e55760008160009055506001016105cd565b5090565b9056fea265627a7a72315820d6b6b8992406fc95475b80858f78caaad3148e13e81344a1839a97f6aab0b94f64736f6c634300050c0032",
  "source": "pragma solidity ^0.5.12;\r\n\r\n\r\ncontract Enrollment{\r\n    uint public numOfstd = 0;\r\n    address payable private myAddress = 0x3a38E94f0662c2407194074F9F7d69A3CDCEc479;\r\n    enum regType{\r\n     onSite, //0\r\n     onLine //1\r\n        }\r\n    struct Student{\r\n       uint rollNo;\r\n       string name;\r\n       bool degree;\r\n       regType registype;\r\n    }\r\n    modifier minAmount(){\r\n        if(msg.value >= 2 ether){\r\n            _;\r\n        }\r\n        }\r\n    mapping (uint => Student) public students;\r\n    function getBalance() public view returns(uint){\r\n    return myAddress.balance;\r\n    }\r\n    function paytoenroll(uint  _rollNo,string memory _name,bool  _degree, regType  _registype) public payable minAmount(){\r\n    students[_rollNo] = Student(_rollNo,_name,_degree,_registype);\r\n    numOfstd = numOfstd+1;\r\n    myAddress.transfer(msg.value);\r\n    }\r\n\r\n    function getAddress() public view returns(address){\r\n    return myAddress;\r\n}\r\n\r\n}\r\n",
  "sourcePath": "D:/Assignments/assignment1_sol_BCC003125/contracts/Enrollment.sol",
  "compiler": {
    "name": "solc",
    "version": "0.5.12+commit.7709ece9.Emscripten.clang"
  },
  "schemaVersion": "3.0.19",
  "updatedAt": "2020-01-28T22:43:15.775Z",
  "devdoc": {
    "methods": {}
  },
  "userdoc": {
    "methods": {}
  }
}